{
  "contractName": "ProductFactory",
  "abi": [
    {
      "anonymous": false,
      "inputs": [
        {
          "indexed": false,
          "internalType": "address",
          "name": "_owner",
          "type": "address"
        },
        {
          "indexed": false,
          "internalType": "string",
          "name": "_brandName",
          "type": "string"
        }
      ],
      "name": "BrandCreated",
      "type": "event"
    },
    {
      "anonymous": false,
      "inputs": [
        {
          "indexed": false,
          "internalType": "address",
          "name": "_owner",
          "type": "address"
        },
        {
          "indexed": false,
          "internalType": "string",
          "name": "_brandName",
          "type": "string"
        }
      ],
      "name": "BrandDeleted",
      "type": "event"
    },
    {
      "anonymous": false,
      "inputs": [
        {
          "indexed": false,
          "internalType": "address",
          "name": "_manufacturer",
          "type": "address"
        },
        {
          "indexed": true,
          "internalType": "uint256",
          "name": "_productId",
          "type": "uint256"
        },
        {
          "indexed": false,
          "internalType": "uint256",
          "name": "_time",
          "type": "uint256"
        }
      ],
      "name": "ProductCreated",
      "type": "event"
    },
    {
      "anonymous": false,
      "inputs": [
        {
          "indexed": false,
          "internalType": "address",
          "name": "_brandOwner",
          "type": "address"
        },
        {
          "indexed": false,
          "internalType": "address",
          "name": "_revokedBy",
          "type": "address"
        }
      ],
      "name": "brandReportRevoved",
      "type": "event"
    },
    {
      "anonymous": false,
      "inputs": [
        {
          "indexed": false,
          "internalType": "address",
          "name": "_brandOwner",
          "type": "address"
        },
        {
          "indexed": false,
          "internalType": "address",
          "name": "_reportedBy",
          "type": "address"
        }
      ],
      "name": "brandReported",
      "type": "event"
    },
    {
      "inputs": [
        {
          "internalType": "uint256",
          "name": "",
          "type": "uint256"
        }
      ],
      "name": "brandOwners",
      "outputs": [
        {
          "internalType": "address",
          "name": "",
          "type": "address"
        }
      ],
      "stateMutability": "view",
      "type": "function"
    },
    {
      "inputs": [
        {
          "internalType": "address",
          "name": "",
          "type": "address"
        }
      ],
      "name": "brands",
      "outputs": [
        {
          "internalType": "string",
          "name": "brandName",
          "type": "string"
        },
        {
          "internalType": "string",
          "name": "logo",
          "type": "string"
        },
        {
          "internalType": "uint256",
          "name": "reports",
          "type": "uint256"
        }
      ],
      "stateMutability": "view",
      "type": "function"
    },
    {
      "inputs": [
        {
          "internalType": "address",
          "name": "_brandOwner",
          "type": "address"
        },
        {
          "internalType": "address",
          "name": "_caller",
          "type": "address"
        }
      ],
      "name": "canIReport",
      "outputs": [
        {
          "internalType": "bool",
          "name": "canI",
          "type": "bool"
        },
        {
          "internalType": "string",
          "name": "reason",
          "type": "string"
        }
      ],
      "stateMutability": "view",
      "type": "function"
    },
    {
      "inputs": [
        {
          "internalType": "string",
          "name": "_brandName",
          "type": "string"
        },
        {
          "internalType": "string",
          "name": "_logo",
          "type": "string"
        }
      ],
      "name": "createBrand",
      "outputs": [],
      "stateMutability": "nonpayable",
      "type": "function"
    },
    {
      "inputs": [],
      "name": "getBrandsLength",
      "outputs": [
        {
          "internalType": "uint256",
          "name": "",
          "type": "uint256"
        }
      ],
      "stateMutability": "view",
      "type": "function"
    },
    {
      "inputs": [
        {
          "internalType": "uint256",
          "name": "",
          "type": "uint256"
        }
      ],
      "name": "productToOwner",
      "outputs": [
        {
          "internalType": "address",
          "name": "",
          "type": "address"
        }
      ],
      "stateMutability": "view",
      "type": "function"
    },
    {
      "inputs": [
        {
          "internalType": "uint256",
          "name": "",
          "type": "uint256"
        }
      ],
      "name": "products",
      "outputs": [
        {
          "internalType": "address",
          "name": "manufacturer",
          "type": "address"
        },
        {
          "internalType": "string",
          "name": "model",
          "type": "string"
        },
        {
          "internalType": "uint256",
          "name": "mfg",
          "type": "uint256"
        },
        {
          "internalType": "uint256",
          "name": "price",
          "type": "uint256"
        },
        {
          "internalType": "uint256",
          "name": "mrp",
          "type": "uint256"
        },
        {
          "internalType": "bool",
          "name": "forSale",
          "type": "bool"
        }
      ],
      "stateMutability": "view",
      "type": "function"
    },
    {
      "inputs": [
        {
          "internalType": "address",
          "name": "_brandOwner",
          "type": "address"
        }
      ],
      "name": "reportBrand",
      "outputs": [],
      "stateMutability": "nonpayable",
      "type": "function"
    },
    {
      "inputs": [
        {
          "internalType": "address",
          "name": "",
          "type": "address"
        },
        {
          "internalType": "address",
          "name": "",
          "type": "address"
        }
      ],
      "name": "userBrand",
      "outputs": [
        {
          "internalType": "uint256",
          "name": "productCount",
          "type": "uint256"
        },
        {
          "internalType": "bool",
          "name": "hasReported",
          "type": "bool"
        }
      ],
      "stateMutability": "view",
      "type": "function"
    },
    {
      "inputs": [
        {
          "internalType": "uint256",
          "name": "_mfg",
          "type": "uint256"
        },
        {
          "internalType": "string",
          "name": "_model",
          "type": "string"
        },
        {
          "internalType": "uint256",
          "name": "_price",
          "type": "uint256"
        },
        {
          "internalType": "uint256",
          "name": "_mrp",
          "type": "uint256"
        }
      ],
      "name": "createProduct",
      "outputs": [],
      "stateMutability": "nonpayable",
      "type": "function"
    },
    {
      "inputs": [],
      "name": "productCount",
      "outputs": [
        {
          "internalType": "uint256",
          "name": "",
          "type": "uint256"
        }
      ],
      "stateMutability": "view",
      "type": "function"
    }
  ],
  "bytecode": "0x608060405234801561001057600080fd5b50611282806100206000396000f3fe608060405234801561001057600080fd5b50600436106100a95760003560e01c80638eb05f88116100715780638eb05f881461019857806393a2abdd146101ad578063ca86c637146101bf578063e0f6ef87146101e0578063e3acfcce146101e8578063f4a44d2d146101fb57600080fd5b80630349da7e146100ae57806316cba8ec146100de578063420fadc8146101285780635b7fd9b5146101515780637acc0b2014610173575b600080fd5b6100c16100bc366004610d9a565b61020e565b6040516001600160a01b0390911681526020015b60405180910390f35b6101136100ec366004610dcf565b60036020908152600092835260408084209091529082529020805460019091015460ff1682565b604080519283529015156020830152016100d5565b6100c1610136366004610d9a565b6005602052600090815260409020546001600160a01b031681565b61016461015f366004610e02565b610238565b6040516100d593929190610e80565b610186610181366004610d9a565b61036a565b6040516100d596959493929190610eb6565b6101ab6101a6366004610e02565b610448565b005b6002545b6040519081526020016100d5565b6101d26101cd366004610dcf565b610625565b6040516100d5929190610f01565b6004546101b1565b6101ab6101f6366004610fc7565b610714565b6101ab61020936600461102b565b610990565b6002818154811061021e57600080fd5b6000918252602090912001546001600160a01b0316905081565b60006020819052908152604090208054819061025390611082565b80601f016020809104026020016040519081016040528092919081815260200182805461027f90611082565b80156102cc5780601f106102a1576101008083540402835291602001916102cc565b820191906000526020600020905b8154815290600101906020018083116102af57829003601f168201915b5050505050908060010180546102e190611082565b80601f016020809104026020016040519081016040528092919081815260200182805461030d90611082565b801561035a5780601f1061032f5761010080835404028352916020019161035a565b820191906000526020600020905b81548152906001019060200180831161033d57829003601f168201915b5050505050908060020154905083565b6004818154811061037a57600080fd5b6000918252602090912060069091020180546001820180546001600160a01b039092169350906103a990611082565b80601f01602080910402602001604051908101604052809291908181526020018280546103d590611082565b80156104225780601f106103f757610100808354040283529160200191610422565b820191906000526020600020905b81548152906001019060200180831161040557829003601f168201915b505050506002830154600384015460048501546005909501549394919390925060ff1686565b3360009081526003602090815260408083206001600160a01b038516845290915290205481906104ef5760405162461bcd60e51b815260206004820152604160248201527f596f7520617265207265706f7274696e672061206272616e642062757420796f60448201527f7520646f6e742774206f776e20616e79206f6620697427732070726f647563746064820152607360f81b608482015260a4015b60405180910390fd5b3360009081526003602090815260408083206001600160a01b038516845290915290206001015460ff16156105665760405162461bcd60e51b815260206004820152601e60248201527f596f752063616e2774207265706f72742061206272616e64207477696365000060448201526064016104e6565b3360009081526003602090815260408083206001600160a01b038616845282528083206001908101805460ff191690911790559082905281206002018054916105ae836110d3565b90915550506001600160a01b038216600090815260208190526040902060029081015411156105e0576105e082610c73565b604080516001600160a01b03841681523360208201527fe7747c1468ca696f832f20cb4db5f557554916e9035754b5b071c3b04a4decb8910160405180910390a15050565b6001600160a01b03808216600090815260036020908152604080832093861683529290529081205460609061068357505060408051808201909152600e81526d466972737420507572636861736560901b602082015260009061070d565b6001600160a01b03808416600090815260036020908152604080832093881683529290522060019081015460ff16151514156106ea57505060408051808201909152601081526f105b1c9958591e4814995c1bdc9d195960821b602082015260009061070d565b505060408051808201909152600681526514995c1bdc9d60d21b60208201526001905b9250929050565b336000908152602081905260408120805461072e90611082565b80601f016020809104026020016040519081016040528092919081815260200182805461075a90611082565b80156107a75780601f1061077c576101008083540402835291602001916107a7565b820191906000526020600020905b81548152906001019060200180831161078a57829003601f168201915b50505050509050805160001461080d5760405162461bcd60e51b815260206004820152602560248201527f4f776e6572206861732061206272616e64206f6e207468652073616d6520616360448201526418dbdd5b9d60da1b60648201526084016104e6565b8260018160405161081e91906110ee565b9081526040519081900360200190205460ff161561087e5760405162461bcd60e51b815260206004820152601960248201527f4272616e64204e616d6520416c7265616479204578697374730000000000000060448201526064016104e6565b60028054600181019091557f405787fa12a823e0f2b7631cc41b3ba8828b3321ca811111fa75cd3aa3bb5ace0180546001600160a01b031916339081179091556040805160608101825286815260208181018790526000828401819052938452838152919092208251805191926108fa92849290910190610d01565b5060208281015180516109139260018501920190610d01565b50604082015181600201559050506001808560405161093291906110ee565b908152604051908190036020018120805492151560ff19909316929092179091557fe6fbc010725b0b71430339ac30f684b21c0b685f04c99a05b107206a8c63a1fa90610982903390879061110a565b60405180910390a150505050565b33600081815260208190526040812080546109aa90611082565b80601f01602080910402602001604051908101604052809291908181526020018280546109d690611082565b8015610a235780601f106109f857610100808354040283529160200191610a23565b820191906000526020600020905b815481529060010190602001808311610a0657829003601f168201915b505050505090506000815111610a745760405162461bcd60e51b8152602060048201526016602482015275139bdd081848149959da5cdd195c995908109c985b9960521b60448201526064016104e6565b838380821115610adb5760405162461bcd60e51b815260206004820152602c60248201527f5072696365206d757374206265206c657373207468616e204d6178696d756d2060448201526b52657461696c20507269636560a01b60648201526084016104e6565b6040805160c08101825233815260208082018a81529282018b90526060820189905260808201889052600160a0830181905260048054918201815560005282517f8a35acfbc15ff81a39ae7d344fd709f28e8600b4aa8c65c6b64bfe7fe36bd19b600690920291820180546001600160a01b0319166001600160a01b0390921691909117815593518051939493610b9b937f8a35acfbc15ff81a39ae7d344fd709f28e8600b4aa8c65c6b64bfe7fe36bd19c909301929190910190610d01565b506040820151600282015560608201516003820155608082015160048083019190915560a0909201516005909101805460ff191691151591909117905554600090610be89060019061112e565b600081815260056020908152604080832080546001600160a01b031916339081179091558352600382528083209091528120805492935090610c29836110d3565b90915550506040805133815242602082015282917fa119589d8d9d80f8c531968021b54e16e57f459b696c6e16dc14f622a373061b910160405180910390a2505050505050505050565b6001600160a01b038116600090815260208190526040908190209051600191610c9b91611145565b908152604080519182900360209081018320805460ff191690556001600160a01b038416600090815290819052207f8a36be64cb775ce9b5064fb7f6e835793bfff4f4a873dee5d16268132033852f91610cf69184916111b7565b60405180910390a150565b828054610d0d90611082565b90600052602060002090601f016020900481019282610d2f5760008555610d75565b82601f10610d4857805160ff1916838001178555610d75565b82800160010185558215610d75579182015b82811115610d75578251825591602001919060010190610d5a565b50610d81929150610d85565b5090565b5b80821115610d815760008155600101610d86565b600060208284031215610dac57600080fd5b5035919050565b80356001600160a01b0381168114610dca57600080fd5b919050565b60008060408385031215610de257600080fd5b610deb83610db3565b9150610df960208401610db3565b90509250929050565b600060208284031215610e1457600080fd5b610e1d82610db3565b9392505050565b60005b83811015610e3f578181015183820152602001610e27565b83811115610e4e576000848401525b50505050565b60008151808452610e6c816020860160208601610e24565b601f01601f19169290920160200192915050565b606081526000610e936060830186610e54565b8281036020840152610ea58186610e54565b915050826040830152949350505050565b6001600160a01b038716815260c060208201819052600090610eda90830188610e54565b905085604083015284606083015283608083015282151560a0830152979650505050505050565b8215158152604060208201526000610f1c6040830184610e54565b949350505050565b634e487b7160e01b600052604160045260246000fd5b600082601f830112610f4b57600080fd5b813567ffffffffffffffff80821115610f6657610f66610f24565b604051601f8301601f19908116603f01168101908282118183101715610f8e57610f8e610f24565b81604052838152866020858801011115610fa757600080fd5b836020870160208301376000602085830101528094505050505092915050565b60008060408385031215610fda57600080fd5b823567ffffffffffffffff80821115610ff257600080fd5b610ffe86838701610f3a565b9350602085013591508082111561101457600080fd5b5061102185828601610f3a565b9150509250929050565b6000806000806080858703121561104157600080fd5b84359350602085013567ffffffffffffffff81111561105f57600080fd5b61106b87828801610f3a565b949794965050505060408301359260600135919050565b600181811c9082168061109657607f821691505b602082108114156110b757634e487b7160e01b600052602260045260246000fd5b50919050565b634e487b7160e01b600052601160045260246000fd5b60006000198214156110e7576110e76110bd565b5060010190565b60008251611100818460208701610e24565b9190910192915050565b6001600160a01b0383168152604060208201819052600090610f1c90830184610e54565b600082821015611140576111406110bd565b500390565b600080835461115381611082565b6001828116801561116b576001811461117c576111ab565b60ff198416875282870194506111ab565b8760005260208060002060005b858110156111a25781548a820152908401908201611189565b50505082870194505b50929695505050505050565b60018060a01b038316815260006020604081840152600084546111d981611082565b80604087015260606001808416600081146111fb576001811461120f5761123d565b60ff1985168984015260808901955061123d565b896000528660002060005b858110156112355781548b820186015290830190880161121a565b8a0184019650505b5093999850505050505050505056fea26469706673582212202f9462789b7e9ca3e1166f1693a919894d75c296aae7104e9d2b5e57051c64df64736f6c634300080c0033",
  "immutableReferences": {},
  "source": "// SPDX-License-Identifier: MIT\npragma solidity ^0.8.0;\n\nimport './Report.sol';\n\ncontract ProductFactory is Report {\n    struct Product {\n        address manufacturer;\n        string model;\n        uint256 mfg;\n        uint256 price;\n        uint256 mrp;\n        bool forSale;\n    }\n\n    Product[] public products;\n    mapping(uint256 => address) public productToOwner;\n\n    event ProductCreated(\n        address _manufacturer,\n        uint256 indexed _productId,\n        uint256 _time\n    );\n\n    modifier onlyProductOwner(uint256 _productId) {\n        require(\n            productToOwner[_productId] == msg.sender,\n            'Only Product Owner can perform this operation'\n        );\n        _;\n    }\n\n    modifier isValidPrice(uint256 _productId, uint256 _price) {\n        require(\n            _price <= products[_productId].mrp,\n            'Price must be less than MRP'\n        );\n        _;\n    }\n\n    modifier isAvailableForSale(uint256 _productId) {\n        require(\n            products[_productId].forSale == true,\n            'The product is not available for sale'\n        );\n        _;\n    }\n\n    modifier checkMrp(uint256 _price, uint256 _mrp) {\n        require(_price <= _mrp, 'Price must be less than Maximum Retail Price');\n        _;\n    }\n\n    function createProduct(\n        uint256 _mfg,\n        string memory _model,\n        uint256 _price,\n        uint256 _mrp\n    ) public checkBrand(msg.sender) checkMrp(_price, _mrp) {\n        products.push(Product(msg.sender, _model, _mfg, _price, _mrp, true));\n        uint256 _productId = products.length - 1;\n        productToOwner[_productId] = msg.sender;\n        userBrand[msg.sender][msg.sender].productCount++;\n        emit ProductCreated(msg.sender, _productId, block.timestamp);\n    }\n\n    function productCount() public view returns (uint256) {\n        return products.length;\n    }\n}\n",
  "sourcePath": "/home/wafula/Downloads/Desktop/Tonfera/contracts/ProductFactory.sol",
  "compiler": {
    "name": "solc",
    "version": "0.8.12+commit.f00d7308.Emscripten.clang"
  },
  "schemaVersion": "3.4.7",
  "updatedAt": "2022-08-06T08:16:27.380Z",
  "devdoc": {
    "kind": "dev",
    "methods": {},
    "version": 1
  },
  "userdoc": {
    "kind": "user",
    "methods": {},
    "version": 1
  }
}